{
  "contractName": "SubmissionsStorage",
  "abi": [
    {
      "inputs": [],
      "stateMutability": "nonpayable",
      "type": "constructor"
    },
    {
      "anonymous": false,
      "inputs": [
        {
          "indexed": false,
          "internalType": "address",
          "name": "_address",
          "type": "address"
        }
      ],
      "name": "NewSubmission",
      "type": "event"
    },
    {
      "anonymous": false,
      "inputs": [
        {
          "indexed": false,
          "internalType": "address",
          "name": "_address",
          "type": "address"
        }
      ],
      "name": "SubmissionProcessed",
      "type": "event"
    },
    {
      "stateMutability": "payable",
      "type": "receive",
      "payable": true
    },
    {
      "inputs": [
        {
          "internalType": "address",
          "name": "_address",
          "type": "address"
        }
      ],
      "name": "getSubmissionDatas",
      "outputs": [
        {
          "components": [
            {
              "internalType": "uint256",
              "name": "_subscriptionID",
              "type": "uint256"
            },
            {
              "internalType": "string",
              "name": "encryptedData",
              "type": "string"
            },
            {
              "internalType": "bool",
              "name": "processed",
              "type": "bool"
            },
            {
              "internalType": "uint256",
              "name": "amountLocked",
              "type": "uint256"
            }
          ],
          "internalType": "struct SubmissionsStorage.SubscriptionData",
          "name": "",
          "type": "tuple"
        }
      ],
      "stateMutability": "view",
      "type": "function",
      "constant": true
    },
    {
      "inputs": [
        {
          "internalType": "string",
          "name": "_encryptedData",
          "type": "string"
        },
        {
          "internalType": "address",
          "name": "_address",
          "type": "address"
        }
      ],
      "name": "postNewSubmission",
      "outputs": [],
      "stateMutability": "nonpayable",
      "type": "function"
    },
    {
      "inputs": [
        {
          "internalType": "address",
          "name": "_address",
          "type": "address"
        }
      ],
      "name": "declineSubmission",
      "outputs": [],
      "stateMutability": "payable",
      "type": "function",
      "payable": true
    },
    {
      "inputs": [
        {
          "internalType": "address",
          "name": "_address",
          "type": "address"
        }
      ],
      "name": "acceptSubmission",
      "outputs": [],
      "stateMutability": "payable",
      "type": "function",
      "payable": true
    }
  ],
  "bytecode": "0x608060405234801561001057600080fd5b50336000806101000a81548173ffffffffffffffffffffffffffffffffffffffff021916908373ffffffffffffffffffffffffffffffffffffffff160217905550611397806100606000396000f3fe6080604052600436106100435760003560e01c80632a7c020414610095578063aa9ed130146100b1578063dcd45d0b146100ee578063eb16fd251461010a57610090565b366100905734600260003373ffffffffffffffffffffffffffffffffffffffff1673ffffffffffffffffffffffffffffffffffffffff168152602001908152602001600020600301819055005b600080fd5b6100af60048036038101906100aa9190610b1a565b610133565b005b3480156100bd57600080fd5b506100d860048036038101906100d39190610b1a565b610398565b6040516100e59190610c6e565b60405180910390f35b61010860048036038101906101039190610b1a565b610540565b005b34801561011657600080fd5b50610131600480360381019061012c9190610dc5565b6107c0565b005b60008054906101000a900473ffffffffffffffffffffffffffffffffffffffff1673ffffffffffffffffffffffffffffffffffffffff163373ffffffffffffffffffffffffffffffffffffffff16146101c1576040517f08c379a00000000000000000000000000000000000000000000000000000000081526004016101b890610ea4565b60405180910390fd5b6000600260008373ffffffffffffffffffffffffffffffffffffffff1673ffffffffffffffffffffffffffffffffffffffff1681526020019081526020016000206003015490506000600260008473ffffffffffffffffffffffffffffffffffffffff1673ffffffffffffffffffffffffffffffffffffffff168152602001908152602001600020600301819055506001600260008473ffffffffffffffffffffffffffffffffffffffff1673ffffffffffffffffffffffffffffffffffffffff16815260200190815260200160002060020160006101000a81548160ff02191690831515021790555060008273ffffffffffffffffffffffffffffffffffffffff16826159d8906040516102d590610ef5565b600060405180830381858888f193505050503d8060008114610313576040519150601f19603f3d011682016040523d82523d6000602084013e610318565b606091505b505090508061035c576040517f08c379a000000000000000000000000000000000000000000000000000000000815260040161035390610f56565b60405180910390fd5b7f03e0d4fffd3652f105823c876391f858e6a3a96cf534407b5add7c0ed2f898028360405161038b9190610f85565b60405180910390a1505050565b6103a0610a21565b60008054906101000a900473ffffffffffffffffffffffffffffffffffffffff1673ffffffffffffffffffffffffffffffffffffffff163373ffffffffffffffffffffffffffffffffffffffff161461042e576040517f08c379a000000000000000000000000000000000000000000000000000000000815260040161042590610ea4565b60405180910390fd5b600260008373ffffffffffffffffffffffffffffffffffffffff1673ffffffffffffffffffffffffffffffffffffffff1681526020019081526020016000206040518060800160405290816000820154815260200160018201805461049290610fcf565b80601f01602080910402602001604051908101604052809291908181526020018280546104be90610fcf565b801561050b5780601f106104e05761010080835404028352916020019161050b565b820191906000526020600020905b8154815290600101906020018083116104ee57829003601f168201915b505050505081526020016002820160009054906101000a900460ff161515151581526020016003820154815250509050919050565b60008054906101000a900473ffffffffffffffffffffffffffffffffffffffff1673ffffffffffffffffffffffffffffffffffffffff163373ffffffffffffffffffffffffffffffffffffffff16146105ce576040517f08c379a00000000000000000000000000000000000000000000000000000000081526004016105c590610ea4565b60405180910390fd5b6000600260008373ffffffffffffffffffffffffffffffffffffffff1673ffffffffffffffffffffffffffffffffffffffff1681526020019081526020016000206003015490506000600260008473ffffffffffffffffffffffffffffffffffffffff1673ffffffffffffffffffffffffffffffffffffffff16815260200190815260200160002060030181905550600260008373ffffffffffffffffffffffffffffffffffffffff1673ffffffffffffffffffffffffffffffffffffffff1681526020019081526020016000206000808201600090556001820160006106b59190610a4b565b6002820160006101000a81549060ff02191690556003820160009055505060008273ffffffffffffffffffffffffffffffffffffffff16826159d8906040516106fd90610ef5565b600060405180830381858888f193505050503d806000811461073b576040519150601f19603f3d011682016040523d82523d6000602084013e610740565b606091505b5050905080610784576040517f08c379a000000000000000000000000000000000000000000000000000000000815260040161077b90610f56565b60405180910390fd5b7f03e0d4fffd3652f105823c876391f858e6a3a96cf534407b5add7c0ed2f89802836040516107b39190610f85565b60405180910390a1505050565b60008054906101000a900473ffffffffffffffffffffffffffffffffffffffff1673ffffffffffffffffffffffffffffffffffffffff163373ffffffffffffffffffffffffffffffffffffffff161461084e576040517f08c379a000000000000000000000000000000000000000000000000000000000815260040161084590610ea4565b60405180910390fd5b670de0b6b3a7640000600260008373ffffffffffffffffffffffffffffffffffffffff1673ffffffffffffffffffffffffffffffffffffffff16815260200190815260200160002060030154146108da576040517f08c379a00000000000000000000000000000000000000000000000000000000081526004016108d19061104c565b60405180910390fd5b600160008154809291906108ed9061109b565b91905055506000600260008373ffffffffffffffffffffffffffffffffffffffff1673ffffffffffffffffffffffffffffffffffffffff16815260200190815260200160002060020160006101000a81548160ff021916908315150217905550600154600260008373ffffffffffffffffffffffffffffffffffffffff1673ffffffffffffffffffffffffffffffffffffffff1681526020019081526020016000206000018190555081600260008373ffffffffffffffffffffffffffffffffffffffff1673ffffffffffffffffffffffffffffffffffffffff16815260200190815260200160002060010190816109e5919061128f565b507f5a6f2b1ec3e0908427b121175f9bc684e2fda2065e2c8c2c0db770f7c5bab11981604051610a159190610f85565b60405180910390a15050565b60405180608001604052806000815260200160608152602001600015158152602001600081525090565b508054610a5790610fcf565b6000825580601f10610a695750610a88565b601f016020900490600052602060002090810190610a879190610a8b565b5b50565b5b80821115610aa4576000816000905550600101610a8c565b5090565b6000604051905090565b600080fd5b600080fd5b600073ffffffffffffffffffffffffffffffffffffffff82169050919050565b6000610ae782610abc565b9050919050565b610af781610adc565b8114610b0257600080fd5b50565b600081359050610b1481610aee565b92915050565b600060208284031215610b3057610b2f610ab2565b5b6000610b3e84828501610b05565b91505092915050565b6000819050919050565b610b5a81610b47565b82525050565b600081519050919050565b600082825260208201905092915050565b60005b83811015610b9a578082015181840152602081019050610b7f565b60008484015250505050565b6000601f19601f8301169050919050565b6000610bc282610b60565b610bcc8185610b6b565b9350610bdc818560208601610b7c565b610be581610ba6565b840191505092915050565b60008115159050919050565b610c0581610bf0565b82525050565b6000608083016000830151610c236000860182610b51565b5060208301518482036020860152610c3b8282610bb7565b9150506040830151610c506040860182610bfc565b506060830151610c636060860182610b51565b508091505092915050565b60006020820190508181036000830152610c888184610c0b565b905092915050565b600080fd5b600080fd5b7f4e487b7100000000000000000000000000000000000000000000000000000000600052604160045260246000fd5b610cd282610ba6565b810181811067ffffffffffffffff82111715610cf157610cf0610c9a565b5b80604052505050565b6000610d04610aa8565b9050610d108282610cc9565b919050565b600067ffffffffffffffff821115610d3057610d2f610c9a565b5b610d3982610ba6565b9050602081019050919050565b82818337600083830152505050565b6000610d68610d6384610d15565b610cfa565b905082815260208101848484011115610d8457610d83610c95565b5b610d8f848285610d46565b509392505050565b600082601f830112610dac57610dab610c90565b5b8135610dbc848260208601610d55565b91505092915050565b60008060408385031215610ddc57610ddb610ab2565b5b600083013567ffffffffffffffff811115610dfa57610df9610ab7565b5b610e0685828601610d97565b9250506020610e1785828601610b05565b9150509250929050565b600082825260208201905092915050565b7f6f6e6c7920746865206f776e65722063616e2063616c6c20746869732066756e60008201527f6300000000000000000000000000000000000000000000000000000000000000602082015250565b6000610e8e602183610e21565b9150610e9982610e32565b604082019050919050565b60006020820190508181036000830152610ebd81610e81565b9050919050565b600081905092915050565b50565b6000610edf600083610ec4565b9150610eea82610ecf565b600082019050919050565b6000610f0082610ed2565b9150819050919050565b7f726566756e6420756e7375636365737366756c00000000000000000000000000600082015250565b6000610f40601383610e21565b9150610f4b82610f0a565b602082019050919050565b60006020820190508181036000830152610f6f81610f33565b9050919050565b610f7f81610adc565b82525050565b6000602082019050610f9a6000830184610f76565b92915050565b7f4e487b7100000000000000000000000000000000000000000000000000000000600052602260045260246000fd5b60006002820490506001821680610fe757607f821691505b602082108103610ffa57610ff9610fa0565b5b50919050565b7f6e65656420746f206c6f636b203120657468206265666f726500000000000000600082015250565b6000611036601983610e21565b915061104182611000565b602082019050919050565b6000602082019050818103600083015261106581611029565b9050919050565b7f4e487b7100000000000000000000000000000000000000000000000000000000600052601160045260246000fd5b60006110a682610b47565b91507fffffffffffffffffffffffffffffffffffffffffffffffffffffffffffffffff82036110d8576110d761106c565b5b600182019050919050565b60008190508160005260206000209050919050565b60006020601f8301049050919050565b600082821b905092915050565b6000600883026111457fffffffffffffffffffffffffffffffffffffffffffffffffffffffffffffffff82611108565b61114f8683611108565b95508019841693508086168417925050509392505050565b6000819050919050565b600061118c61118761118284610b47565b611167565b610b47565b9050919050565b6000819050919050565b6111a683611171565b6111ba6111b282611193565b848454611115565b825550505050565b600090565b6111cf6111c2565b6111da81848461119d565b505050565b5b818110156111fe576111f36000826111c7565b6001810190506111e0565b5050565b601f82111561124357611214816110e3565b61121d846110f8565b8101602085101561122c578190505b611240611238856110f8565b8301826111df565b50505b505050565b600082821c905092915050565b600061126660001984600802611248565b1980831691505092915050565b600061127f8383611255565b9150826002028217905092915050565b61129882610b60565b67ffffffffffffffff8111156112b1576112b0610c9a565b5b6112bb8254610fcf565b6112c6828285611202565b600060209050601f8311600181146112f957600084156112e7578287015190505b6112f18582611273565b865550611359565b601f198416611307866110e3565b60005b8281101561132f5784890151825560018201915060208501945060208101905061130a565b8683101561134c5784890151611348601f891682611255565b8355505b6001600288020188555050505b50505050505056fea264697066735822122069cdf82ed300905f95e9641770c128e2dcf5cdc714b29cd9a9a092482ff562ef64736f6c63430008110033",
  "immutableReferences": {},
  "source": "// SPDX-License-Identifier: GPL-3.0\n\npragma solidity 0.8.17;\n\ncontract SubmissionsStorage{\n    address owner;\n    uint256 subscriptionID;\n\n    struct SubscriptionData {\n        uint256 _subscriptionID;\n        string encryptedData;\n        bool processed;\n        uint256 amountLocked;\n    }\n\n    mapping(address => SubscriptionData) private submissionDatas;\n\n    event NewSubmission(address _address);\n    event SubmissionProcessed(address _address);\n\n    constructor() {\n        owner = msg.sender;\n    }\n\n    modifier onlyOwner() {\n        require(msg.sender == owner, \"only the owner can call this func\");\n        _;\n    }\n\n    receive() external payable {\n        submissionDatas[msg.sender].amountLocked = msg.value;\n    }\n\n    function getSubmissionDatas(address _address)\n        public\n        view\n        onlyOwner\n        returns (SubscriptionData memory)\n    {\n        return submissionDatas[_address];\n    }\n\n    function postNewSubmission(string memory _encryptedData, address _address)\n        external\n        onlyOwner\n    {\n        require(\n            submissionDatas[_address].amountLocked == 1 ether,\n            \"need to lock 1 eth before\"\n        );\n        subscriptionID++;\n        submissionDatas[_address].processed = false;\n        submissionDatas[_address]._subscriptionID = subscriptionID;\n        submissionDatas[_address].encryptedData = _encryptedData;\n        emit NewSubmission(_address);\n    }\n\n    function declineSubmission(address _address) external payable onlyOwner {\n        uint256 amount = submissionDatas[_address].amountLocked;\n        submissionDatas[_address].amountLocked = 0; // Probably useless\n        delete submissionDatas[_address];\n        (bool sent, ) = payable(_address).call{value: amount, gas: 23000}(\"\");\n        require(sent, \"refund unsuccessful\");\n        emit SubmissionProcessed(_address);\n    }\n\n    function acceptSubmission(address _address) external payable onlyOwner {\n        uint256 amount = submissionDatas[_address].amountLocked;\n        submissionDatas[_address].amountLocked = 0; // Probably useless\n        submissionDatas[_address].processed = true;\n        (bool sent, ) = payable(_address).call{value: amount, gas: 23000}(\"\");\n        require(sent, \"refund unsuccessful\");\n        emit SubmissionProcessed(_address);\n    }\n}",
  "sourcePath": "/Users/youv/Documents/project-xrpl/truffle/contracts/SubmissionsStorage.sol",
  "compiler": {
    "name": "solc",
    "version": "0.8.17+commit.8df45f5f.Emscripten.clang"
  },
  "schemaVersion": "3.4.14",
  "updatedAt": "2023-07-17T09:49:52.237Z",
  "networkType": "ethereum",
  "devdoc": {
    "kind": "dev",
    "methods": {},
    "version": 1
  },
  "userdoc": {
    "kind": "user",
    "methods": {},
    "version": 1
  }
}